:100000000C94FE000C941B010C941B010C941B011E
:100010000C941B010C941B010C941B010C941B01F0
:100020000C941B010C941B010C941B010C941B01E0
:100030000C941B010C941B010C941B010C941B01D0
:100040000C941B010C941B010C941B010C941B01C0
:100050000C94CF110C941B010C9448150C941B01AB
:100060000C941B010C941B010C941B010C941B01A0
:100070000C941B010C941B010C941B010C941B0190
:100080000C941B010C941B010C948A0A0C941B0108
:100090000C941B010C941B010C941B010C941B0170
:1000A0000C941B010C941B010C941B010C94C217A3
:1000B0000C941B010C941B010C941B010C941B0150
:1000C0000C941B010C941B010C941B010C941B0140
:1000D0000C941B010C941B010C941B010C941B0130
:1000E0000C941B010C941B010C948E180C94751726
:1000F0000C941B010C941B010C941B010C941B0110
:100100000C941B010C941B010C941B010C941B01FF
:100110000C941B010C941B010C941B010C941B01EF
:100120000C941B010C941B010C941B010C941B01DF
:100130000C941B010C9485190C941B010C941B014D
:100140000C941B010C941B010C941B010C941B01BF
:100150000C941B010C941B010C941B010C941B01AF
:100160000C941B010C941B010C941B010C941B019F
:100170000C941B010C941B010C941B010C941B018F
:100180000C941B010C941B010C941B010C941B017F
:100190000C941B010C941B010C941B010C941B016F
:1001A0000C941B010C941B010C941B010C941B015F
:1001B0000C941B010C941B010C941B010C941B014F
:1001C0000C941B010C941B010C941B010C941B013F
:1001D0000C941B010C941B010C941B010C941B012F
:1001E0000C941B010C941B010C941B010C941B011F
:1001F0000C941B010C941B010C941B0111241FBEB9
:10020000CFEFCDBFD7E2DEBF10E2A0E0B0E2E0E585
:10021000F4E302C005900D92A03CB107D9F725E2A6
:10022000A0ECB0E201C01D92A037B207E1F70E9436
:100230008B0A0C94261A0C9400008F92AF92BF92F6
:10024000CF92DF92EF920F9381E08F938F9386E5A9
:1002500090E29F938F9389E0882E94E1A92EB12C90
:100260002AE5C22E21E2D22EE12C00E021E042E07C
:1002700061E086E894E00E94DB0F0F900F900F90F2
:100280000F900F91EF90DF90CF90BF90AF908F9035
:100290000895CF93DF93A0E4B6E081E016968C93A7
:1002A0001697C0E0D6E090E89E8390E116969C9366
:1002B0001697E0E6F6E09683868382E016968C93A6
:1002C000169790E49E8390E216969C9328E02683EE
:1002D0009683E0E2F6E0868384E08683DF91CF9127
:1002E00008950C94C513CF92DF92EF92FF92CF93B3
:1002F0000E94B7092FEF37EA41E6215030404040D5
:10030000E1F700C0000032E021E070E890E162E037
:1003100050E480E248E020934506AFEFE1EEF4E0E0
:10032000A150E040F040E1F700C0000020934606F5
:1003300070930506AFEFE1EEF4E0A150E040F0402D
:10034000E1F700C000007093060690934506AFEFFA
:10035000E1EEF4E0A150E040F040E1F700C0000021
:100360009093460690936506AFEFE1EEF4E0A1505E
:10037000E040F040E1F700C0000090936606209353
:100380006506AFEFE1EEF4E0A150E040F040E1F7A8
:1003900000C000002093660660934506AFEFE1EED3
:1003A000F4E0A150E040F040E1F700C000006093AD
:1003B000460650930506AFEFE1EEF4E0A150E040B1
:1003C000F040E1F700C00000509306068093450618
:1003D000AFEFE1EEF4E0A150E040F040E1F700C003
:1003E00000008093460640936506AFEFE1EEF4E02F
:1003F000A150E040F040E1F700C0000040936606E5
:1004000080936506AFEFE1EEF4E0A150E040F040EC
:10041000E1F700C0000080936606315009F07BCF01
:100420002FEF33EC49E0215030404040E1F700C06D
:10043000000032E021E070E890E162E050E480E208
:1004400048E02093450670930506909345069093E7
:10045000650620936506C2E0609345065093050645
:10046000809345064093650680936506AFEFE3EC05
:10047000F9E0A150E040F040E1F700C00000209317
:100480004606709306069093460690936606209360
:100490006606609346065093060680934606409390
:1004A000660680936606AFEFE3ECF9E0A150E0400A
:1004B000F040E1F700C00000315019F62FEF33EDA6
:1004C00040E3215030404040E1F700C0000082E0AE
:1004D0000E949A0DC09305068FE39FE10197F1F703
:1004E00000C0000080E00E94B50DBC01990F880B90
:1004F000990B0E940D0B20E030E040E859E30E9488
:10050000C20B2AE33DE145E65EE30E94990A6B01D6
:100510007C0160935E2170935F21809360219093B2
:100520006121C093060620E030E040E05FE30E94D6
:10053000BD0B181654F423E333E343E550E4C7013D
:10054000B6010E94940A87FD06C0CF91FF90EF90FC
:10055000DF90CF90089580E2809365069FEFA3EC33
:10056000E9E09150A040E040E1F700C0000084E1E4
:1005700090E290936706FFEF23EC39E0F1502040C2
:100580003040E1F700C00000815099F7CF91FF9013
:10059000EF90DF90CF900895EAE5F1E2138280E0DA
:1005A00090E0A0E7B0E484879587A687B7878AE9BB
:1005B00099E9A9E6B0E480879187A287B387089577
:1005C00088E080935A218AE591E20C942E0980E21A
:1005D00080930506089580E28093060608950895A5
:1005E0000895089508950895809100209091012024
:1005F000803A9F4020F0109200201092012082E06B
:100600008093050681E08093C82008950895CF92D5
:10061000DF92EF92FF921F93CF93DF938091280692
:1006200080FF21C01092CA20C2E0C0932606D4E009
:10063000D093260620E030E040E550E460915E2152
:1006400070915F2180916021909161210E94940AB4
:1006500018160CF098C0DF91CF911F91FF90EF908A
:10066000DF90CF900895C091CA20C11143C0C090BF
:100670005E21D0905F21E0906021F0906121209177
:100680006221309163214091642150916521C7011D
:10069000B6010E94940A18160CF4B3C082E080934D
:1006A000250684E0809326062091662130916721FB
:1006B0004091682150916921C701B6010E94BD0B8C
:1006C00087FF0AC023E333E343E850E4C701B601E0
:1006D0000E94BD0B87FDBFCF82E08093260684E099
:1006E00080932606DF91CF911F91FF90EF90DF90CE
:1006F000CF900895C13009F090C08091C920811138
:10070000D1C012E010932606D4E0D0932506C09005
:100710005E21D0905F21E0906021F090612126E67B
:1007200036E646E550E4C701B6010E94940A181661
:100730000CF491CFC093C92010932506D0932606C0
:1007400023E333E343E850E4C701B6010E94BD0B45
:1007500087FD81CF82E08093C9208093260684E0C4
:1007600080932506A701960160916621709167210B
:1007700080916821909169210E94BD0B87FD6BCF0C
:100780001092CA20A9CF81E08093460690E890930A
:10079000060690E19093460690936606809366065F
:1007A000C093460680E48093060680E28093460666
:1007B00098E09093660680936606C0932606D093D1
:1007C0002606C09306068093060684E191E02FEF8B
:1007D00033EC49E0215030404040E1F700C00000D8
:1007E00090936706815099F785E08093480088953B
:1007F000DF91CF911F91FF90EF90DF90CF900C94FD
:10080000DD0C26E636E646E550E4C701B6010E9457
:10081000940A18160CF448CF41CFC230E9F4C093C3
:100820002606D4E0D093250626E636E646E550E4D3
:1008300060915E2170915F21809160219091612192
:100840000E94940A18160CF406CF1092CA20C09386
:100850002606D0932606FFCEC43009F0FCCED2E0A7
:10086000D0932506C093260623E333E343E850E400
:1008700060915E2170915F21809160219091612152
:100880000E94BD0B87FDE7CE1092CA20D0932606AA
:10089000C0932606DF91CF911F91FF90EF90DF90DC
:1008A000CF900895813061F0823009F0D4CEC090AD
:1008B0005E21D0905F21E0906021F090612152CFC5
:1008C000C0905E21D0905F21E0906021F090612186
:1008D00037CFCF92DF92EF92FF92CF93DF93809149
:1008E000280683FD27C02091C3203091C420A90190
:1008F0004F5F5F4F4093C3205093C4208091C2202C
:100900008F5F843609F42CC38093C2208091C82065
:100910008111B2C0809100209091012001968093B6
:10092000002090930120DF91CF91FF90EF90DF9016
:10093000CF9008958091C3209091C4208531910576
:1009400098F1843CB9E09B07C0F421E0209346066F
:1009500020E82093060620E12093460622E020931B
:10096000460620E42093060620E22093460628E867
:1009700033E12093C0203093C1209C01245C394096
:10098000283B3B4008F437C39C012C5735412C31A0
:10099000354208F43CC388399A4330F08091CA202C
:1009A00080FF70C31092CA201092C3201092C420FE
:1009B000C091C020D091C120209709F456C1219741
:1009C000C093C020D093C1209E01369527953695BF
:1009D000279536952795ABE7B4E10E940E1A9695B8
:1009E000879548EC489F9001499F300D1124C2170C
:1009F000D307D9F4C0905E21D0905F21E0906021B0
:100A0000F090612123E333E343E650E4C701B601EC
:100A10000E94940A87FF1DC381E08093450680E809
:100A20008093060680E1809346069E0132952295CA
:100A30002F7023273F702327AEE3BAE00E940E1ADF
:100A400020E931E0DC01A29FC001A39F900DB29F7D
:100A5000900D1124C817D90709F058CF81E0809371
:100A6000460680E88093060680E1809346068091E2
:100A7000C820882309F44ECF1092C82080E00E943D
:100A8000B50D22E020930606853691050CF4CCC006
:100A9000E091C62021E02E0F2093C620F0E0EE0F5B
:100AA000FF1FE65CFE4D80839183203109F0E5C293
:100AB0001092C62081E08093C52020913C21309186
:100AC0003D2160913A2170913B21CB01A0E0B0E043
:100AD000820F931FA11DB11D20913E2130913F2116
:100AE000820F931FA11DB11D209140213091412102
:100AF000820F931FA11DB11D2091422130914321EE
:100B0000820F931FA11DB11D2091442130914521D9
:100B1000820F931FA11DB11D2091462130914721C5
:100B2000820F931FA11DB11D2091482130914921B1
:100B3000820F931FA11DB11D20914A2130914B219D
:100B4000820F931FA11DB11D20914C2130914D2189
:100B5000820F931FA11DB11D20914E2130914F2175
:100B6000820F931FA11DB11D209150213091512161
:100B7000820F931FA11DB11D20915221309153214D
:100B8000820F931FA11DB11D209154213091552139
:100B9000820F931FA11DB11D209156213091572125
:100BA000820F931FA11DB11D209158213091592111
:100BB000820F931FA11DB11D24E0B695A7959795AF
:100BC00087952A95D1F7BC0180E090E00E940B0B3D
:100BD00020E030E040E859E30E94C20B2AE33DE107
:100BE00045E65EE30E94990A60935E2170935F215F
:100BF00080936021909361210E94070380915D2181
:100C0000813009F411C208F417C21092C720823053
:100C100009F080CE8091C520882309F47BCE61E065
:100C200084E20E94D71276CE80E2EAE3F1E2DF01AD
:100C30001D928A95E9F71092C6201092C520209344
:100C4000260684E08093260610925E2110925F2192
:100C500010926021109261211092CA2082E080934C
:100C6000260684E080932606C9CF0E9406178823B3
:100C700009F45CC18091280680FD58C04091002095
:100C8000509101209A0136952795ABE7B4E10E9477
:100C90000E1A9695879562E3689F9001699F300DC3
:100CA00011244217530709F041C08091CA2080FDEA
:100CB0003DC08091480686FF57C281E0809345067B
:100CC0008091480687FD66C280E880930606809181
:100CD000080684FF45C280E1809345068091E807BD
:100CE00080FF3AC282E0809345068091080682FF29
:100CF0002FC280E4809305068091080683FF24C2FA
:100D000080E2809345060E94A413882309F418C248
:100D100080E1809365060E94A013882309F40CC229
:100D200088E08093650681E08093650680912806BF
:100D300080FD47C040910020509101209A013695D6
:100D4000279536952795A5ECB0E20E940E1A92954C
:100D500082958F7089279F70892764EF71E0869F45
:100D60009001879F300D969F300D11244217530735
:100D700041F58091CA2080FF24C081E08093450620
:100D800080E880930506C0E1C093450682E0809329
:100D9000460680E48093060680E2809346060E9421
:100DA000A413882309F4ECC1C09365060E94A01324
:100DB000882309F4E1C188E08093650681E080938F
:100DC00065068091280680FD49C040910020509121
:100DD00001209A01369527953695279536952795C2
:100DE000A5ECB0E20E940E1A929582958F70892729
:100DF0009F70892768EE73E0869F9001879F300D72
:100E0000969F300D11244217530741F58091CA2057
:100E100080FF24C081E08093460680E88093060628
:100E2000C0E1C093460682E08093450680E480934B
:100E3000050680E2809345060E94A413882309F4E6
:100E4000A6C1C09365060E94A013882309F49BC124
:100E500088E08093650681E080936506809128068E
:100E600080FF44C08091002090910120883B9B40EE
:100E7000E9F58091480686FF5BC181E080934506D5
:100E80008091480687FD74C180E8809306068091B2
:100E9000080684FF49C180E1809345068091E807F8
:100EA00080FF3EC182E0809345068091080682FF64
:100EB00033C180E4809305068091080683FF28C132
:100EC00080E2809345060E94A413882309F41CC184
:100ED00080E1809365060E94A013882309F410C165
:100EE00088E08093650681E08093660680912806FD
:100EF00080FF0CCD40910020509101209A01A7EB7A
:100F0000B6E00E940E1A96958795969587959695C8
:100F1000879561E371E0869F9001879F300D969FD2
:100F2000300D11244217530709F0F0CC81E0809373
:100F3000460690E89093060690E1909346069093BB
:100F400066068093660682E08093460680E480937E
:100F5000060680E28093460688E080936606D6CC3B
:100F60001092C220C901835C9940883B9B4018F4D1
:100F700080E1809367062B5735412C31354208F4C8
:100F800099C048395A4308F4C1CC0E940617811110
:100F9000A3C081E0809366068091280680FDB6CCD0
:100FA000809139218823A1F01092392181E080932A
:100FB000460680E88093060680E18093460682E03C
:100FC0008093460680E48093060680E2809346067E
:100FD00081E08093470680E88093070680E1809354
:100FE000470682E08093470680E48093070680E20C
:100FF000809347068BCC0E94A413882309F453C026
:101000000E94E9138091C3209091C420BDCC0E941E
:10101000A013811145C00E94AA130E94E112809181
:10102000C3209091C420B7CC8091C7208F5F8A30B5
:1010300041F08093C7206ECC8091C7208F5F8C33A6
:10104000C1F71092C7208091C520882309F462CC93
:10105000E6CD26E636E646E650E4C701B6010E9434
:10106000940A87FF13C081E08093450680E880934F
:10107000050680E180934606D8CC8091C520811179
:101080001CCDEACD81E08093CA208ECC81E0809394
:10109000450680E88093050680E180934506C5CC2F
:1010A0000E94C513BACF0E94D7138091C32090919C
:1010B000C4206ACC0E940617811116C080E180937B
:1010C000660688E08093670681E08093392140912D
:1010D000C3205091C42055CF0E94A013882361F0F3
:1010E00088E08093650658CF0E94A413882331F3CB
:1010F00080E180936506E5CF88E0809366064CCF5B
:1011000088E080936606EFCE80E180936606E3CEAA
:1011100080E280934606D7CE80E480930606CCCE4C
:1011200082E080934606C1CE80E180934606B6CE2B
:1011300081E080934606A4CE88E080936606F3CDD6
:1011400080E180936606E7CD80E280934606DBCDA2
:1011500080E480930606D0CD82E080934606C5CD1C
:1011600080E180934606BACD81E080934606A8CD03
:1011700080E8809305068BCE88E0809366061ECEBD
:10118000C093660613CE88E08093660664CEC09353
:10119000660659CE80E88093050699CDE0E6F6E034
:1011A00082E085838AE68A95F1F700C084E0868331
:1011B0000895E0E6F6E084E085838AE68A95F1F713
:1011C00000C082E0868308950895089508950895E3
:1011D000089508950895089590EE980F993040F479
:1011E00090E08097FC01E65BFF4D2081261711F00F
:1011F00080E00895880F991FFC01EC5EFF4D01907F
:10120000F081E02D099581E0089590EE980F9930D6
:1012100048F4E82FF0E0B097DF01A65BBF4D9C914A
:10122000961711F080E00895EE0FFF1FDF01A85C14
:10123000BF4D8D919C9182179307A1F7EE5FFF4DF3
:101240000190F081E02DCA010994EAE5F1E2808184
:10125000887F9091CA20892B80830895FC0180812A
:1012600080FF16C091E09093CA201092C9209093FD
:10127000460690E89093060690E19093460692E029
:101280009093460690E49093060690E2909346066B
:1012900081FF03C092E09093CA2082FF03C094E0D4
:1012A0009093CA2083FD1092CA2080935A2181E036
:1012B0000895FC01808180935B2181E00895FC0109
:1012C000808180935C2181E00895FC018081982FCA
:1012D0009C7F21F480935D2181E0089580E0089552
:1012E000FC0180819181A281B38180935E219093E2
:1012F0005F21A0936021B093612181E00895FC01FA
:1013000080819181A281B381809362219093632136
:10131000A0936421B093652181E00895FC01808150
:101320009181A281B3818093662190936721A093DC
:101330006821B093692181E00895FC018081918149
:1013400080936A2190936B2181E008950895FC01B8
:101350008081918180936C2190936D2181E008952B
:1013600008950895089508950895089508950F9390
:1013700020E040E062E080E096E00E94E30C20E0A4
:1013800040E063E080E096E00E94E30C20E040E073
:1013900064E080E096E00E94E30C20E048E160E039
:1013A00080E296E00E94E30C20E040E063E080E20F
:1013B00096E00E94E30C20E040E066E080E496E0E6
:1013C0000E94E30C20E040E067E080E496E00E94A9
:1013D000E30C20E040E060E080EE97E00E94E30C48
:1013E00000E021E040E061E080E296E00E94100D24
:1013F00021E040E061E080E096E00E94F80C21E00E
:1014000040E065E080E096E00E94F80C21E040E0DA
:1014100066E080E096E00E94F80C21E040E067E0A2
:1014200080E096E00E94F80C21E040E061E080E27C
:1014300096E00E94F80C21E040E062E080E296E055
:101440000E94F80C21E040E060E080E496E00E9419
:10145000F80C21E040E061E080E496E00E94F80CA6
:1014600021E040E064E080E496E00E94F80C21E096
:1014700040E065E080E496E00E94F80C21E040E066
:1014800060E080E696E00E94F80C21E040E061E038
:1014900080E696E00E94F80C21E040E062E080E601
:1014A00096E00E94F80C21E040E063E080E696E0E0
:1014B0000E94F80C21E040E064E080E696E00E94A3
:1014C000F80C21E040E065E080E696E00E94F80C30
:1014D000E0E0F6E082E0868390E2968320E42683D3
:1014E00020E82683E0E2F6E0868334E03683E0E419
:1014F000F6E041E04683868320E126839683E0E69A
:10150000F6E046838583368388E086832683968348
:101510000F91089518950E941D018091A20087687F
:101520008093A2007894FFCF0E94480B08F481E0DA
:1015300008950E94AD0A0C94830B0E947C0B58F016
:101540000E94750B40F029F45F3F29F00C946C0B5E
:1015500051110C94B70B0C94720B0E94940B68F30E
:101560009923B1F3552391F3951B550BBB27AA275C
:1015700062177307840738F09F5F5F4F220F331F96
:10158000441FAA1FA9F335D00E2E3AF0E0E832D05E
:1015900091505040E695001CCAF72BD0FE2F29D061
:1015A000660F771F881FBB1F261737074807AB0733
:1015B000B0E809F0BB0B802DBF01FF2793585F4FA8
:1015C0003AF09E3F510578F00C946C0B0C94B70BDD
:1015D0005F3FE4F3983ED4F3869577956795B7958A
:1015E000F7959F5FC9F7880F911D9695879597F995
:1015F0000895E1E0660F771F881FBB1F621773070E
:101600008407BA0720F0621B730B840BBA0BEE1F22
:1016100088F7E0950895E89409C097FB3EF490950B
:101620008095709561957F4F8F4F9F4F9923A9F0BB
:10163000F92F96E9BB279395F6958795779567954A
:10164000B795F111F8CFFAF4BB0F11F460FF1BC08E
:101650006F5F7F4F8F4F9F4F16C0882311F096E921
:1016600011C0772321F09EE8872F762F05C06623CF
:1016700071F096E8862F70E060E02AF09A95660F88
:10168000771F881FDAF7880F9695879597F9089541
:10169000990F0008550FAA0BE0E8FEEF1616170683
:1016A000E807F907C0F012161306E407F50798F0EB
:1016B000621B730B840B950B39F40A2661F0232B04
:1016C000242B252B21F408950A2609F4A140A69580
:1016D0008FEF811D811D089597F99F6780E870E065
:1016E00060E008959FEF80EC089500240A94161698
:1016F000170618060906089500240A941216130600
:10170000140605060895092E0394000C11F488238D
:1017100052F0BB0F40F4BF2B11F460FF04C06F5FA9
:101720007F4F8F4F9F4F089557FD9058440F551F7F
:1017300059F05F3F71F04795880F97FB991F61F053
:101740009F3F79F087950895121613061406551FCA
:10175000F2CF4695F1DF08C0161617061806991F36
:10176000F1CF86957105610508940895E894BB272B
:1017700066277727CB0197F908950E94480B08F454
:101780008FEF08950E94D50B0C94830B0E94750B6C
:1017900038F00E947C0B20F0952311F00C946C0B18
:1017A0000C94720B11240C94B70B0E94940B70F3E1
:1017B000959FC1F3950F50E0551F629FF001729FF6
:1017C000BB27F00DB11D639FAA27F00DB11DAA1F05
:1017D000649F6627B00DA11D661F829F2227B00D52
:1017E000A11D621F739FB00DA11D621F839FA00DDD
:1017F000611D221F749F3327A00D611D231F849F2D
:10180000600D211D822F762F6A2F11249F57504083
:101810009AF0F1F088234AF0EE0FFF1FBB1F661FFE
:10182000771F881F91505040A9F79E3F510580F0C7
:101830000C946C0B0C94B70B5F3FE4F3983ED4F31D
:10184000869577956795B795F795E7959F5FC1F76B
:10185000FE2B880F911D9695879597F90895222361
:1018600009F45BC030E23093520038E0309350000E
:101870003091510033FFFCCF611538E4730738EE27
:10188000830731E0930709F482C0611534E27307DE
:1018900034EF8307910509F47CC0611532E17307C9
:1018A0003AE78307910509F44BC0611539E07307E6
:1018B0003DE38307910509F46EC0603834E873078F
:1018C0003EE18307910509F460C0603432E4730798
:1018D0003FE08307910509F462C0603231EA730783
:1018E00037E08307910509F458C0603930ED73077C
:1018F00033E08307910509F454C0683438EE730768
:1019000031E08307910509F44EC06432744F8105BC
:10191000910509F04AC084E414C032E230935200C9
:101920003AE0309350003091510031FFFCCF3091BC
:10193000510033FDA1CF3091510033FFF8CF9CCF40
:101940008CE098ED94BF222399F023E0209340008F
:1019500094BF80934100442329F088ED84BF81E047
:101960008093420088ED84BF81E0809380000895D9
:1019700021E02093400094BF8093410094BF82E017
:101980008093560020936000E6CF8CE1DACF80E0B0
:10199000D8CF84E0D6CF84E1D4CF8CE2D2CF84E21A
:1019A000D0CF84E3CECF8CE3CCCF80E0089588ED18
:1019B00084BF81E080938000089588ED84BF83E038
:1019C00080938000FFCFFC01308181E090E0062E03
:1019D00001C0880F0A94EAF780958323808370966C
:1019E000E60FF11D8081422B807C482B40830895B7
:1019F000FC01308181E090E0062E01C0880F0A943E
:101A0000EAF7382B30837096E60FF11D8081807CD9
:101A1000842B8083211103C0808187608083089597
:101A20000F93FC013185842F90E0880F991FA3E06C
:101A3000B0E0082E01C0AA0F0A94EAF7A095A323EC
:101A4000082E01C0660F0A94EAF7A62BA187411160
:101A50000FC00023A9F02287248581E090E0042EA6
:101A600001C0880F0A94EAF7282B24870F91089564
:101A7000413091F7011108C08385822B8387ECCF19
:101A80008285822B8287E8CF2387E6CFFC011082F4
:101A90008CE081874150510946A357A32683608378
:101AA0000895FC0110822CE021870895FC0110822A
:101AB0008CE081874150510946A357A32683608358
:101AC00008952091CF0127FDFCCF8093C001909312
:101AD000C1011092C20186E08093CA0188ED84BFE3
:101AE00081E08093CB018091C40108952091CF01C2
:101AF00027FDFCCF2091CF0121FF08C026E32093D2
:101B0000CA0128ED24BF21E02093CB0123E32093D9
:101B1000CA018093C0019093C1011092C2016093E9
:101B2000C40185E38093CA0188ED84BF81E080937E
:101B3000CB010895E1E7F0E090819D7F908391E0F3
:101B400090930002E1E0F2E020E6208320812083F0
:101B50008093020285E08093040290932002E2E2E7
:101B6000F2E01082808180830895880F880F880FAB
:101B700080932102809120028068809320028091CE
:101B8000230280FFFCCF81E0809323028091240216
:101B9000909125029F702091532030915420821BF8
:101BA000930B0895CF93962F10922E21803208F434
:101BB0007FC0282F30E020523109F901E65BFF4D4C
:101BC0005081220F331FF901E85CFF4DC081F901FC
:101BD000EA5DFF4D208131812093D1203093D220C6
:101BE00090936E21252F2F702C9FC02D1124EAE099
:101BF000EC0FE0936F21809370212FEF20937121E0
:101C000050615093722141116BC08091CD20909111
:101C1000CE20A091CF20B091D020809373219093BB
:101C20007421A0937521B09376212091CB2030911F
:101C3000CC2020937721309378218E2F90E08E3F17
:101C40009105A4F52091D1203091D22040E0842F3D
:101C500090E0F901E80FF91F5081FC01E758FE4DB3
:101C600050834F5F4C13F3CF20916F212E5F30E0F4
:101C700021503109121613060CF09FC080E090E04D
:101C800040E050E0FC01E259FE4D8081580F4F5F6B
:101C9000842F90E082179307ACF3F901E259FE4DCF
:101CA000508380915520813009F46BC0CF91089505
:101CB0008F30E0F7282F30E0F901EF54FF4D5081CD
:101CC000220F331FF901ED56FF4DC081F901EB588A
:101CD000FF4D208131812093D1203093D22080CFBD
:101CE00020914C084091E5205091E6206091E7203A
:101CF0007091E82020FF21C04F5F5F4F6F4F7F4FF3
:101D000040937321509374216093752170937621D1
:101D100020916008309161082093772130937821D9
:101D2000883009F08ACF933009F087CF109277215D
:101D300010927821E0916F2180CF409373215093CE
:101D40007421609375217093762120916008309101
:101D500061082093772130937821F091D620F03DCF
:101D6000F9F62F303105E0F64F5F5F4F6F4F7F4F31
:101D70004093732150937421609375217093762161
:101D8000CFCF83E88093A200C091A30A9091A30AC9
:101D90009C7F9093A30A60916F216E5F8EE691E223
:101DA0000E9402189091A30A8C2F8370892B809334
:101DB000A30A87E88093A20079CF50E06ECFCF933B
:101DC000E09171242E2F30E024303105BCF090E0FA
:101DD00020E030E0F901EB58FB4D4081F901E55876
:101DE000FB4D40839F5F292F30E0E09171244E2FFF
:101DF00050E0435051092417350764F38093702451
:101E0000EA5FE0937124809174248061809374244C
:101E100080914C0880FF5FC08091E5209091E62082
:101E2000A091E720B091E820AC01BD014F5F5F4F6A
:101E30006F4F7F4F4093752450937624609377249F
:101E40007093782420916008309161082093792460
:101E500030937A2420912E212223B9F020914C082E
:101E600020FF69C00196A11DB11D80937524909338
:101E70007624A0937724B093782480916008909181
:101E800061088093792490937A24F0E0EF58FB4D19
:101E900010826091712440E0262F30E080E090E0D5
:101EA000F901EF58FB4DDC01A059BB4D20818C910D
:101EB000280F20834F5F60917124262F30E0842FFC
:101EC00090E02817390764F780915520813009F494
:101ED00057C0CF9108958091E5209091E620A09180
:101EE000E720B091E8208093752490937624A09306
:101EF0007724B09378242091600830916108209372
:101F0000792430937A244091D620403D09F0A2CF25
:101F10002F30310508F09ECFAC01BD014F5F5F4F00
:101F20006F4F7F4F409375245093762460937724AE
:101F3000709378248FCF8093752490937624A09308
:101F40007724B09378242091600830916108209321
:101F5000792430937A244091D620403D09F095CFE2
:101F60002F30310508F091CF0196A11DB11D80934E
:101F7000752490937624A0937724B093782485CF0A
:101F800083E88093A200C091A30A9091A30A9C7F4A
:101F90009093A30A6E5F80E794E20E9402189091EA
:101FA000A30A8C2F8370892B8093A30A87E88093E0
:101FB000A200CF9108952F923F924F925F926F921D
:101FC0007F928F929F92AF92BF92CF92DF92EF92C9
:101FD000FF920F931F93CF93DF931F92CDB7DEB77E
:101FE0003C01462E142FF22E3E882F88988C598C57
:101FF0000E94D70C21E041E060E078E488EE91E0B7
:102000000E942F0C81E0809348006092DC20709247
:10201000DD204092DE201093DF20E092E0208093CC
:10202000E1208AE08093E220F092E3200093E42014
:102030001092E5201092E6201092E7201092E820FE
:102040001092E9201092EA2082E090E00E94610D57
:10205000482E83E090E00E94610D89838F3F09F450
:1020600027C1F41409F4D8C06FED80E090E00E941D
:10207000760D6F2D82E090E00E94760D61E083E0A6
:1020800090E00E94760D0E94730180E090E00E9433
:10209000610D8E3E09F4CDC080E68093EB2080E494
:1020A000809308210E94E408809108219110A6C025
:1020B00090E0892B552009F4A5C090E1892B8093ED
:1020C00008210E94710180E48093EC200E94CC02E0
:1020D0000E94E002A092DA20B092DB20C092D820C9
:1020E000D092D9208092D72087E090E00E94610DA5
:1020F0008F3F09F41CC10DEE10E2F6EFEF2EFF2426
:10210000FA94C7018C5D90427C01C701800F911F3A
:102110000E94610DF80181938F01F1E206301F07E3
:10212000A1F789E1EDEEF0E2AAE0B1E201900D92B3
:102130008A95E1F784E090E00E94610D082F10E09D
:10214000009306211093072185E090E00E94610D25
:10215000302F2227282B20930621309307218091AE
:102160000821992009F450C08860511051C08F7E19
:102170008093082121E042E15AE767E080E498E09B
:102180000E94560DE091D62081E08E0F8093D620DC
:10219000F0E0E359FF4D808190E00197809368085B
:1021A0009093690881E08093470820E040E065E073
:1021B00080E696E00E94F80C80E28093650640E09D
:1021C00060E081E090E00E940C170E946A1785EEA3
:1021D00090E20F90DF91CF911F910F91FF90EF90C0
:1021E000DF90CF90BF90AF909F908F907F906F9037
:1021F0005F904F903F902F900C94251998E0892B79
:1022000051105BCF90E05ACF877F552009F4AFCFB4
:10221000806180930821AECF9981913009F024CF5D
:102220000E94730180E090E00E94610D8E3E09F0F3
:1022300033CF81E090E00E94610D8093EB20A114E8
:10224000B10499F0760185010C0D1D1DA0E26A2EE6
:10225000712CC3010E94610DF70181937F01FFEF93
:102260006F1A7F0AE016F106A1F786E090E00E945F
:10227000610D982F9F77906490930821992011F019
:1022800080FD72C051100AC097FD73C096FD0DC04D
:1022900080E88093EC200E94E0021CCF91FFF4CFF5
:1022A0000E94D90890910821EFCF0E94E408F0CF56
:1022B0006F2D82E090E00E94760D61E083E090E077
:1022C0000E94760D82E090E00E94610D482E83E02E
:1022D00090E00E94610D8983032D122DB7E06B2ED3
:1022E000712CE12C0CC0E1100FC0C3010E94760DCF
:1022F000FFEF6F1A7F0A80E26816710491F0F8010F
:1023000061918F016111EFCF60E0C3010E94760DF2
:10231000EE24E394FFEF6F1A7F0A80E268167104DF
:1023200071F76FED80E090E00E94760D9ACEE32C7D
:10233000F22C07E010E0D12C0BC0D1100EC0C80168
:102340000E94760D0F5F1F4F0032110509F4D3CEA6
:10235000F70161917F016111F0CF60E0C8010E9437
:10236000760DDD24D394EECF0E94CE089091082103
:1023700089CF0E94E5089091082188CF0E944901E9
:1023800020E280E092EEA4E0B0E00197A109B1095B
:102390000097A105B105C9F720936706F2CF809198
:1023A000E5209091E620A091E720B091E8200196E9
:1023B000A11DB11D8093E5209093E620A093E72016
:1023C000B093E8200E945D198EE090E08093680849
:1023D0009093690881E08093D6200E94F202809158
:1023E0004C08806180934C080E94F4020E946904AA
:1023F0004091EB2047FD03C0842F8370B4C0842F2D
:102400008370813009F0AFC010922E2185EE90E2EA
:102410008093D1209093D22083E080936E218EE030
:1024200080936F2188E0809370218FEF80937121DA
:1024300084E18093722180914C0880FF18C08091C4
:10244000E5209091E620A091E720B091E820019648
:10245000A11DB11D8093732190937421A0937521C8
:10246000B0937621809160089091610826C0809198
:10247000E5209091E620A091E720B091E82080939C
:10248000732190937421A0937521B09376212091AC
:102490006008309161085091D620503D71F42F3082
:1024A000310558F40196A11DB11D809373219093BD
:1024B0007421A0937521B093762110927721109208
:1024C00078218091E5209091E620A091E720B091BD
:1024D000E8208093792190937A21A0937B21B09377
:1024E0007C2120916F212E5F30E02150310912169E
:1024F000130684F450E060E080E090E0FC01E259D3
:10250000FE4D8081680F5F5F852F90E082179307F3
:10251000ACF301C060E0F901E259FE4D60838091A7
:102520005520813029F583E88093A200C091A30A49
:102530009091A30A9C7F9093A30A60916F216E5F94
:102540008EE691E20E9402189091A30A8C2F83706C
:10255000892B8093A30A87E88093A2004091EB2007
:10256000842F837000C0882339F0813019F400C0B3
:1025700092E003C091E001C094E08091E5208923BE
:1025800021F080E28093660605C046FF03C080E22A
:10259000809365060E94F30280914C0884FF06C078
:1025A0008091D520811102C00E94BE111895909192
:1025B000EB209370913009F00895462F63E00C945E
:1025C000D20DCF93DF936EEE80E090E00E94760D07
:1025D0006091EB2081E090E00E94760D60910821EF
:1025E00086E090E00E94760D8091DA209091DB20C9
:1025F000892BA9F0C0E0D0E0E091D820F091D9205B
:10260000EC0FFD1F6081CE0180960E94760D219611
:102610008091DA209091DB20C817D90768F383E016
:102620008093D52081E0DF91CF910895FF920F93A1
:102630001F93CF93DF93FC0180818130F1F08230D2
:1026400009F448C0843009F44DC0883039F081E085
:10265000DF91CF911F910F91FF9008956FEF87E069
:1026600090E00E94760D83E08093D52081E0DF9199
:10267000CF911F910F91FF9008950AE011E2C7E0FA
:10268000D0E0F12C09C0F1100CC0CE010E94760DF3
:102690002196C032D10579F0F80161918F01611165
:1026A000F2CF60E0CE010E94760DFF24F3942196D4
:1026B000C032D10589F76FED80E090E00E94760D81
:1026C00083E08093D52081E0DF91CF911F910F911E
:1026D000FF90089580E090E00E94610D8E3E19F217
:1026E00080E0B6CF6EEE80E090E00E94760D6091C3
:1026F000EB2081E090E00E94760D6091082186E059
:1027000090E00E94760D8091DA209091DB20892B59
:1027100009F4A9CFC0E0D0E0E091D820F091D92011
:10272000EC0FFD1F6081CE0180960E94760D2196F0
:102730008091DA209091DB20C817D90768F393CFF6
:10274000809108218170089580910821881F882731
:10275000881F08958091082183FF04C080FF04C072
:1027600081E0089580E008958D7F81608093082145
:102770000E94CE088091082187FFF2CF8F77806476
:10278000809308210E94E408EBCF8091082184FF08
:1027900004C081FF04C081E0089580E008958E7F29
:1027A0008260809308210E94D90881E00895809179
:1027B000082180FD0CC087FD08C08F7B8068809356
:1027C00008210E94E50881E0089581E0089580E0F5
:1027D00008958091082186FF02C081E008958F77D7
:1027E0008064809308210E94E408F7CFCF93DF93A1
:1027F000FC01C0818C2F8170C0FF04C09091082122
:1028000093FF34C0DC2FD270C1FF04C09091082127
:1028100094FF2CC0C7FD26C0882321F08091082199
:1028200080FF28C0DD2321F08091082181FF33C083
:10283000C6FF04C08091082186FF34C0C7FD04C0D4
:1028400081E0DF91CF9108958091082187FDF8CF35
:102850008F7B8068809308210E94E50881E0DF91EA
:10286000CF9108959091082190FFD6CF80E0DF911D
:10287000CF9108958D7F8160809308210E94CE08BA
:102880008091082187FFCECF8F77806480930821C5
:102890000E94E408C7CF8E7F8260809308210E9447
:1028A000D908C6CF8F778064809308210E94E408FE
:1028B000C5CFCF92DF92FF920F931F93CF93DF93F9
:1028C00000D0CDB7DEB78F3040F4E82FF0E0DF0165
:1028D000AF54BF4D9C91961759F080E00F900F9028
:1028E000DF91CF911F910F91FF90DF90CF900895CE
:1028F000EE0FFF1FED56FF4D608171816217730768
:1029000061F7883009F446C08A30B9F08B3009F499
:1029100083C08C3009F497C08D3009F44EC08E30DE
:10292000E1F6CA010F900F90DF91CF911F910F91A7
:10293000FF90DF90CF900C94F613FA01108116FDF2
:1029400003C080E2809366060091EB20812F837F95
:102950008093EB2015FF5BC005FF93C013FF0EC0F3
:1029600081E08093262110922421809325211092CA
:1029700023218091EB20877F8093EB201370E9F572
:10298000037011F481E0AACF109226210E94EF0279
:1029900081E0A4CF8091082187FD9FCFFA0180813B
:1029A0009181A281B3818093E5209093E620A0934A
:1029B000E720B093E82081E091CFFA0180819181F6
:1029C000019609F461C080910921882309F485CF1B
:1029D000FA01608185E090E049835A830E94760D78
:1029E00049815A81FA01618184E090E00E94760D6C
:1029F00083E08093D52081E071CF1130C9F403705A
:102A0000013009F4BFCF0E94F00281E067CF05FFDB
:102A1000A5CF0E94EB02A2CFCA010F900F90DF91C9
:102A2000CF911F910F91FF90DF90CF900C941613D0
:102A3000133009F0A7CF0370033009F4A3CF0E942D
:102A4000F10281E04BCF8A0187E0C82ED12CF12C16
:102A50000CC0F1100FC0C6010E94760DFFEFCF1A17
:102A6000DF0A20E2C216D10419F2F80161918F0148
:102A70006111EFCF60E0C6010E94760DFF24F39450
:102A8000EDCF0E94E7026ACF81E08093092126CF33
:102A90000E9462190E94F202809168089091690870
:102AA000E091D62021E02E0F2093D620E770F0E0B1
:102AB000E359FF4D3081830F911D809368089093F7
:102AC000690820FD31C180915520813071F482E088
:102AD0008093850683E88093A2008091A30A8F7C6F
:102AE0008093A30A87E88093A20080912D21811111
:102AF00003C080912C210FC0815080932D21882309
:102B000019F080912C2107C010922D2110922C21B8
:102B100010922721A5C0882309F4A2C0A0916E229B
:102B2000B0916F22809171248F3F59F010917224DF
:102B3000509173240091742435E7E32E34E2F32E90
:102B40000AC010917424509175240091762427E7CF
:102B5000E22E24E2F22EFD01319681F090E040E079
:102B600020E030E0E901C059DB4D2881420F9F5F32
:102B7000292F30E02E173F07A8F301C040E0E059AD
:102B8000FB4D908149136AC05F3F09F067C0909187
:102B900070249130A9F51D31B0F41F3008F02AC11E
:102BA000E12FF0E0EF54FF4D9081091323C119305C
:102BB00009F01BC180916008909161088093E92021
:102BC0009093EA2012C1602F812F0E94EC0890910F
:102BD000EB2094FD43C0811103C08091712406C095
:102BE00041E061E0812F0E94D20D38C010922E2169
:102BF00090E0883F910594F589E00E94DF0E2EC099
:102C0000CD010497202F2F70622F70E00E94FA19D7
:102C10001D3138F49B01A701602F812F0E945914A8
:102C200006C09B01A701602F812F0E94050990918A
:102C3000EB2094FD13C0882331F041E062E0812F46
:102C40000E94D20D0BC010922E218091712490E031
:102C5000883F91051CF48AE00E94DF0E10922C211F
:102C600080915520813009F05CC08091880680FFFA
:102C700046C08091D3209091D4200196883B2BE0D0
:102C8000920729F08093D3209093D4203CC01092D7
:102C9000D3201092D4208091EB20982F9370913004
:102CA000E9F486FD03C090E290936606982F907F2A
:102CB0009093EB2083FF0BC01092242181E080933E
:102CC000252110922321892F877F8093EB2010925A
:102CD00026210E94EF029091552001C091E01092B0
:102CE0002A2110922B2110922821109229218091C3
:102CF000A30A8C7F8093A30A913029F012C010920E
:102D0000D3201092D42083E88093A2008091A30A5C
:102D100080638093A30A87E88093A20082E0809377
:102D200086060E94060302C00E9469048091D52095
:102D3000882339F081508093D520811102C00E94F0
:102D4000DD0C809125218823E1F08091D6208370CD
:102D50008230B9F4809123218F3060F4893009F0FA
:102D60004EC020916008309161082093E920309393
:102D7000EA2045C08F5F809323218C3111F410929B
:102D8000252180912621882311F18091D6208370FE
:102D9000F1F480912421E82FF0E0E65BFF4D6081A3
:102DA000805E0E94EC08882339F08091242141E064
:102DB00061E0805E0E94D20D809124218F5F80931C
:102DC00024219091D720891302C0109226210E94BD
:102DD000F30280914C0884FF06C08091D5208111B8
:102DE00002C00E94BE11189511C08091EB2084FF93
:102DF000F7CE34CF9091EB2094FFF8CE2FCF41E067
:102E000061E00E94D20D80912321B4CF8091EB200C
:102E100085FB882780F90895FF920F931F93CF9326
:102E2000DF9300D0CDB7DEB789839A83F62E142FB7
:102E300020E040E061E080E896E00E94F80C20E0AD
:102E400040E060E080E896E00E94E30C01E021E0D1
:102E500040E063E080E896E00E94100D82E08093FD
:102E6000860683E08093A50A89818093A60A8F2D28
:102E700090E18902B00111248A818F70862B8093A2
:102E8000A70A112329F08091A40A84608093A40AE0
:102E900088E08093850620E040E063E080E896E0EB
:102EA0000E94F80C20E040E062E080E896E00E949A
:102EB000E30C8091880680FF05C08091A30A8C7F77
:102EC0008093A30A0F900F90DF91CF911F910F91E4
:102ED000FF900895E0EAFAE084818861848380EEBF
:102EE000818383818063838308951F920F920FB63D
:102EF0000F9211242F933F934F935F936F937F9380
:102F00008F939F93AF93BF93EF93FF930E94E80833
:102F100020912A2130912B21C901019680932A21E9
:102F200090932B21F901E059FD4D20812093A00AB7
:102F3000811522E09207F9F0209128213091292172
:102F40002817390729F48091A30A8C7F8093A30A5C
:102F50000E94E908FF91EF91BF91AF919F918F91EE
:102F60007F916F915F914F913F912F910F900FBE85
:102F70000F901F90189510922A2110922B2180E01B
:102F800090E0DACF1F920F920FB60F9211242F9379
:102F90003F934F935F936F937F938F939F93AF93E1
:102FA000BF93EF93FF930E94EA088091880680FD0B
:102FB00023C020912A2130912B21809128219091AA
:102FC00029212817390729F08091A30A836080936B
:102FD000A30A0E94EB08FF91EF91BF91AF919F91DF
:102FE0008F917F916F915F914F913F912F910F90B2
:102FF0000FBE0F901F9018958091A30A8C7F80932D
:10300000A30AE7CFBF92CF92DF92EF92FF920F9386
:103010001F93CF93DF936C01B62E8091880680FDBD
:1030200005C08091A30A83608093A30A00912821A0
:1030300010912921C0E0D2E0C01BD10BEB2CF12C68
:10304000CE15DF0560F1A701B601C80180599D4D7D
:103050000E941D1A80912A2190912B21E00EF11ED1
:10306000E0922821F0922921E11422E0F20609F4ED
:1030700048C008171907B8F5E816F906A0F18FEF50
:10308000E81AF80AE0922A21F0922B21E11422E0BA
:10309000F20649F510922A2110922B2124C0AE018C
:1030A000B601C80180599D4D0E941D1ABC1AEB2C17
:1030B000F12CBE016C0D7D1DA70180E792E20E94FC
:1030C0001D1A80912A2190912B21E0922821F092C3
:1030D00029210817190788F42FEFE21AF20AE09263
:1030E0002A21F0922B21DF91CF911F910F91FF9018
:1030F000EF90DF90CF90BF900895E816F90660F743
:10310000F2CF1092282110922921892B61F781E0BA
:1031100090E080932A2190932B21E5CF1F920F926C
:103120000FB60F9211242F933F934F935F936F939A
:103130007F938F939F93AF93BF93EF93FF930E94DF
:10314000E6089091A00AE091272181E08E0F8093FC
:103150002721F0E0E059FB4D90838130E9F0843085
:1031600019F190E020916E2230916F22821793071F
:1031700049F10E94E708FF91EF91BF91AF919F91B4
:103180008F917F916F915F914F913F912F910F9010
:103190000FBE0F901F90189580917024815082303F
:1031A000D0F110922721E5CF809171248F3F01F15A
:1031B00090E08E3F9105A9F3029680936E22909342
:1031C0006F22D7CF20915520213061F120917124B9
:1031D0002F3F29F122E030E0821B930B80936E2277
:1031E00090936F221092272181E080932C21C1CFF0
:1031F000809171249091722404968F3F910509F07B
:1032000080F68091722490917324049680936E22AC
:1032100090936F22AECF82E380932D21AACF24E03A
:1032200030E0DACF82E08093850683E88093A200C5
:103230008091A30A8F7C8093A30A87E88093A200E1
:1032400080916E2290916F22C1CFCF93DF9300D0F7
:10325000CDB7DEB723E130E029833A83809335216F
:10326000909336219C012F5F3F4F20933321309361
:1032700034212F5F3F4F2093312130933221039629
:1032800080932F219093302183E08093B509898129
:103290008093B6098A818F708093B70920E040E05F
:1032A00067E080E696E00E94F80C88E08093B4091D
:1032B0000F900F90DF91CF910895109237211092C7
:1032C000382108952091372130913821C901019684
:1032D00080933721909338218430910571F050F01C
:1032E0008630910530F08830910538F08E3C97405B
:1032F00021F0089522303105E0F721E04CE250E062
:1033000066E080E099E00C94460DE0913521F09163
:10331000362120812A3A71F4E0913321F091342151
:1033200040814F3A69F41895E0913121F0913221B2
:1033300080811CC0E0913321F0913421908101C043
:10334000942F9A3A51F4E0913121F0913221308159
:103350003F3A51F418954AEA18C0E0913121F091B2
:1033600032218081492F02C0832F4AEA8A3A51F4E0
:10337000E0912F21F091302180818F3A29F4189526
:103380003AEA03C0382F01C03AEA80913721909180
:10339000382184309105C9F030F48130910569F00D
:1033A000029779F022C087309105A9F08E3C27E082
:1033B0009207A1F00697C9F40BC08AEA8093B0097E
:1033C00014C08FEA8093B00910C02093B0090DC0DB
:1033D0004093B0090AC03093B00907C0E0912F2193
:1033E000F091302180818093B00980E099E00E94C3
:1033F000510D1895AA1BBB1B51E107C0AA1FBB1F8B
:10340000A617B70710F0A61BB70B881F991F5A9570
:10341000A9F780959095BC01CD010895A29FB001B8
:10342000B39FC001A39F700D811D1124911DB29FF8
:10343000700D811D1124911D0895FB01DC0102C056
:1034400001900D9241505040D8F70895F894FFCF65
:10345000D0072E0959095F09650970097F098E098E
:103460009D09A7092509B109B209B309B409B5092C
:10347000B609B009A6095A215B215C215D215E21B4
:10348000622166216A216C21010001000100010016
:10349000010001000100010001000101010144449B
:1034A000440202B4000154696D657374616D704724
:1034B000656E657261746F7247656E33000F101030
:1034C0000F100F1010DC20DE20DF20E020E120E2D2
:1034D00020E320E420E520E920EB20EC20ED20068D
:1034E000210821010001000100010001000100018B
:1034F00000010001000100010001001900010001AC
:1035000000020101010101010104020101010201A6
:00000001FF
